{
  "_format": "hh-sol-artifact-1",
  "contractName": "OptimismCourse",
  "sourceName": "contracts/OptimismCourse.sol",
  "abi": [
    {
      "inputs": [],
      "stateMutability": "nonpayable",
      "type": "constructor"
    },
    {
      "inputs": [],
      "name": "ERC721EnumerableForbiddenBatchMint",
      "type": "error"
    },
    {
      "inputs": [
        {
          "internalType": "address",
          "name": "sender",
          "type": "address"
        },
        {
          "internalType": "uint256",
          "name": "tokenId",
          "type": "uint256"
        },
        {
          "internalType": "address",
          "name": "owner",
          "type": "address"
        }
      ],
      "name": "ERC721IncorrectOwner",
      "type": "error"
    },
    {
      "inputs": [
        {
          "internalType": "address",
          "name": "operator",
          "type": "address"
        },
        {
          "internalType": "uint256",
          "name": "tokenId",
          "type": "uint256"
        }
      ],
      "name": "ERC721InsufficientApproval",
      "type": "error"
    },
    {
      "inputs": [
        {
          "internalType": "address",
          "name": "approver",
          "type": "address"
        }
      ],
      "name": "ERC721InvalidApprover",
      "type": "error"
    },
    {
      "inputs": [
        {
          "internalType": "address",
          "name": "operator",
          "type": "address"
        }
      ],
      "name": "ERC721InvalidOperator",
      "type": "error"
    },
    {
      "inputs": [
        {
          "internalType": "address",
          "name": "owner",
          "type": "address"
        }
      ],
      "name": "ERC721InvalidOwner",
      "type": "error"
    },
    {
      "inputs": [
        {
          "internalType": "address",
          "name": "receiver",
          "type": "address"
        }
      ],
      "name": "ERC721InvalidReceiver",
      "type": "error"
    },
    {
      "inputs": [
        {
          "internalType": "address",
          "name": "sender",
          "type": "address"
        }
      ],
      "name": "ERC721InvalidSender",
      "type": "error"
    },
    {
      "inputs": [
        {
          "internalType": "uint256",
          "name": "tokenId",
          "type": "uint256"
        }
      ],
      "name": "ERC721NonexistentToken",
      "type": "error"
    },
    {
      "inputs": [
        {
          "internalType": "address",
          "name": "owner",
          "type": "address"
        },
        {
          "internalType": "uint256",
          "name": "index",
          "type": "uint256"
        }
      ],
      "name": "ERC721OutOfBoundsIndex",
      "type": "error"
    },
    {
      "inputs": [
        {
          "internalType": "address",
          "name": "owner",
          "type": "address"
        }
      ],
      "name": "OwnableInvalidOwner",
      "type": "error"
    },
    {
      "inputs": [
        {
          "internalType": "address",
          "name": "account",
          "type": "address"
        }
      ],
      "name": "OwnableUnauthorizedAccount",
      "type": "error"
    },
    {
      "anonymous": false,
      "inputs": [
        {
          "indexed": true,
          "internalType": "address",
          "name": "owner",
          "type": "address"
        },
        {
          "indexed": true,
          "internalType": "address",
          "name": "approved",
          "type": "address"
        },
        {
          "indexed": true,
          "internalType": "uint256",
          "name": "tokenId",
          "type": "uint256"
        }
      ],
      "name": "Approval",
      "type": "event"
    },
    {
      "anonymous": false,
      "inputs": [
        {
          "indexed": true,
          "internalType": "address",
          "name": "owner",
          "type": "address"
        },
        {
          "indexed": true,
          "internalType": "address",
          "name": "operator",
          "type": "address"
        },
        {
          "indexed": false,
          "internalType": "bool",
          "name": "approved",
          "type": "bool"
        }
      ],
      "name": "ApprovalForAll",
      "type": "event"
    },
    {
      "anonymous": false,
      "inputs": [
        {
          "indexed": false,
          "internalType": "uint256",
          "name": "_fromTokenId",
          "type": "uint256"
        },
        {
          "indexed": false,
          "internalType": "uint256",
          "name": "_toTokenId",
          "type": "uint256"
        }
      ],
      "name": "BatchMetadataUpdate",
      "type": "event"
    },
    {
      "anonymous": false,
      "inputs": [
        {
          "indexed": false,
          "internalType": "uint256",
          "name": "_tokenId",
          "type": "uint256"
        }
      ],
      "name": "MetadataUpdate",
      "type": "event"
    },
    {
      "anonymous": false,
      "inputs": [
        {
          "indexed": true,
          "internalType": "address",
          "name": "previousOwner",
          "type": "address"
        },
        {
          "indexed": true,
          "internalType": "address",
          "name": "newOwner",
          "type": "address"
        }
      ],
      "name": "OwnershipTransferred",
      "type": "event"
    },
    {
      "anonymous": false,
      "inputs": [
        {
          "indexed": true,
          "internalType": "address",
          "name": "from",
          "type": "address"
        },
        {
          "indexed": true,
          "internalType": "address",
          "name": "to",
          "type": "address"
        },
        {
          "indexed": true,
          "internalType": "uint256",
          "name": "tokenId",
          "type": "uint256"
        }
      ],
      "name": "Transfer",
      "type": "event"
    },
    {
      "inputs": [
        {
          "internalType": "address",
          "name": "to",
          "type": "address"
        },
        {
          "internalType": "uint256",
          "name": "tokenId",
          "type": "uint256"
        }
      ],
      "name": "approve",
      "outputs": [],
      "stateMutability": "nonpayable",
      "type": "function"
    },
    {
      "inputs": [
        {
          "internalType": "address",
          "name": "owner",
          "type": "address"
        }
      ],
      "name": "balanceOf",
      "outputs": [
        {
          "internalType": "uint256",
          "name": "",
          "type": "uint256"
        }
      ],
      "stateMutability": "view",
      "type": "function"
    },
    {
      "inputs": [
        {
          "internalType": "uint256",
          "name": "tokenId",
          "type": "uint256"
        }
      ],
      "name": "getApproved",
      "outputs": [
        {
          "internalType": "address",
          "name": "",
          "type": "address"
        }
      ],
      "stateMutability": "view",
      "type": "function"
    },
    {
      "inputs": [
        {
          "internalType": "address",
          "name": "owner",
          "type": "address"
        },
        {
          "internalType": "address",
          "name": "operator",
          "type": "address"
        }
      ],
      "name": "isApprovedForAll",
      "outputs": [
        {
          "internalType": "bool",
          "name": "",
          "type": "bool"
        }
      ],
      "stateMutability": "view",
      "type": "function"
    },
    {
      "inputs": [],
      "name": "name",
      "outputs": [
        {
          "internalType": "string",
          "name": "",
          "type": "string"
        }
      ],
      "stateMutability": "view",
      "type": "function"
    },
    {
      "inputs": [],
      "name": "owner",
      "outputs": [
        {
          "internalType": "address",
          "name": "",
          "type": "address"
        }
      ],
      "stateMutability": "view",
      "type": "function"
    },
    {
      "inputs": [
        {
          "internalType": "uint256",
          "name": "tokenId",
          "type": "uint256"
        }
      ],
      "name": "ownerOf",
      "outputs": [
        {
          "internalType": "address",
          "name": "",
          "type": "address"
        }
      ],
      "stateMutability": "view",
      "type": "function"
    },
    {
      "inputs": [],
      "name": "renounceOwnership",
      "outputs": [],
      "stateMutability": "nonpayable",
      "type": "function"
    },
    {
      "inputs": [
        {
          "internalType": "address",
          "name": "to",
          "type": "address"
        },
        {
          "internalType": "uint256",
          "name": "tokenId",
          "type": "uint256"
        },
        {
          "internalType": "string",
          "name": "uri",
          "type": "string"
        }
      ],
      "name": "safeMint",
      "outputs": [],
      "stateMutability": "nonpayable",
      "type": "function"
    },
    {
      "inputs": [
        {
          "internalType": "address",
          "name": "from",
          "type": "address"
        },
        {
          "internalType": "address",
          "name": "to",
          "type": "address"
        },
        {
          "internalType": "uint256",
          "name": "tokenId",
          "type": "uint256"
        }
      ],
      "name": "safeTransferFrom",
      "outputs": [],
      "stateMutability": "nonpayable",
      "type": "function"
    },
    {
      "inputs": [
        {
          "internalType": "address",
          "name": "from",
          "type": "address"
        },
        {
          "internalType": "address",
          "name": "to",
          "type": "address"
        },
        {
          "internalType": "uint256",
          "name": "tokenId",
          "type": "uint256"
        },
        {
          "internalType": "bytes",
          "name": "data",
          "type": "bytes"
        }
      ],
      "name": "safeTransferFrom",
      "outputs": [],
      "stateMutability": "nonpayable",
      "type": "function"
    },
    {
      "inputs": [
        {
          "internalType": "address",
          "name": "operator",
          "type": "address"
        },
        {
          "internalType": "bool",
          "name": "approved",
          "type": "bool"
        }
      ],
      "name": "setApprovalForAll",
      "outputs": [],
      "stateMutability": "nonpayable",
      "type": "function"
    },
    {
      "inputs": [
        {
          "internalType": "bytes4",
          "name": "interfaceId",
          "type": "bytes4"
        }
      ],
      "name": "supportsInterface",
      "outputs": [
        {
          "internalType": "bool",
          "name": "",
          "type": "bool"
        }
      ],
      "stateMutability": "view",
      "type": "function"
    },
    {
      "inputs": [],
      "name": "symbol",
      "outputs": [
        {
          "internalType": "string",
          "name": "",
          "type": "string"
        }
      ],
      "stateMutability": "view",
      "type": "function"
    },
    {
      "inputs": [
        {
          "internalType": "uint256",
          "name": "index",
          "type": "uint256"
        }
      ],
      "name": "tokenByIndex",
      "outputs": [
        {
          "internalType": "uint256",
          "name": "",
          "type": "uint256"
        }
      ],
      "stateMutability": "view",
      "type": "function"
    },
    {
      "inputs": [
        {
          "internalType": "address",
          "name": "owner",
          "type": "address"
        },
        {
          "internalType": "uint256",
          "name": "index",
          "type": "uint256"
        }
      ],
      "name": "tokenOfOwnerByIndex",
      "outputs": [
        {
          "internalType": "uint256",
          "name": "",
          "type": "uint256"
        }
      ],
      "stateMutability": "view",
      "type": "function"
    },
    {
      "inputs": [
        {
          "internalType": "uint256",
          "name": "tokenId",
          "type": "uint256"
        }
      ],
      "name": "tokenURI",
      "outputs": [
        {
          "internalType": "string",
          "name": "",
          "type": "string"
        }
      ],
      "stateMutability": "view",
      "type": "function"
    },
    {
      "inputs": [],
      "name": "totalSupply",
      "outputs": [
        {
          "internalType": "uint256",
          "name": "",
          "type": "uint256"
        }
      ],
      "stateMutability": "view",
      "type": "function"
    },
    {
      "inputs": [
        {
          "internalType": "address",
          "name": "from",
          "type": "address"
        },
        {
          "internalType": "address",
          "name": "to",
          "type": "address"
        },
        {
          "internalType": "uint256",
          "name": "tokenId",
          "type": "uint256"
        }
      ],
      "name": "transferFrom",
      "outputs": [],
      "stateMutability": "nonpayable",
      "type": "function"
    },
    {
      "inputs": [
        {
          "internalType": "address",
          "name": "newOwner",
          "type": "address"
        }
      ],
      "name": "transferOwnership",
      "outputs": [],
      "stateMutability": "nonpayable",
      "type": "function"
    }
  ],
  "bytecode": "0x60806040523480156200001157600080fd5b507344b49653d0db62deeab2f2a7b3c555aa2bff90a26040518060400160405280600e81526020017f4f7074696d69736d436f757273650000000000000000000000000000000000008152506040518060400160405280600381526020017f4f504300000000000000000000000000000000000000000000000000000000008152508160009081620000a4919062000486565b508060019081620000b6919062000486565b505050600073ffffffffffffffffffffffffffffffffffffffff168173ffffffffffffffffffffffffffffffffffffffff16036200012e5760006040517f1e4fbdf7000000000000000000000000000000000000000000000000000000008152600401620001259190620005b2565b60405180910390fd5b6200013f816200014660201b60201c565b50620005cf565b6000600b60009054906101000a900473ffffffffffffffffffffffffffffffffffffffff16905081600b60006101000a81548173ffffffffffffffffffffffffffffffffffffffff021916908373ffffffffffffffffffffffffffffffffffffffff1602179055508173ffffffffffffffffffffffffffffffffffffffff168173ffffffffffffffffffffffffffffffffffffffff167f8be0079c531659141344cd1fd0a4f28419497f9722a3daafe3b4186f6b6457e060405160405180910390a35050565b600081519050919050565b7f4e487b7100000000000000000000000000000000000000000000000000000000600052604160045260246000fd5b7f4e487b7100000000000000000000000000000000000000000000000000000000600052602260045260246000fd5b600060028204905060018216806200028e57607f821691505b602082108103620002a457620002a362000246565b5b50919050565b60008190508160005260206000209050919050565b60006020601f8301049050919050565b600082821b905092915050565b6000600883026200030e7fffffffffffffffffffffffffffffffffffffffffffffffffffffffffffffffff82620002cf565b6200031a8683620002cf565b95508019841693508086168417925050509392505050565b6000819050919050565b6000819050919050565b600062000367620003616200035b8462000332565b6200033c565b62000332565b9050919050565b6000819050919050565b620003838362000346565b6200039b62000392826200036e565b848454620002dc565b825550505050565b600090565b620003b2620003a3565b620003bf81848462000378565b505050565b5b81811015620003e757620003db600082620003a8565b600181019050620003c5565b5050565b601f82111562000436576200040081620002aa565b6200040b84620002bf565b810160208510156200041b578190505b620004336200042a85620002bf565b830182620003c4565b50505b505050565b600082821c905092915050565b60006200045b600019846008026200043b565b1980831691505092915050565b600062000476838362000448565b9150826002028217905092915050565b62000491826200020c565b67ffffffffffffffff811115620004ad57620004ac62000217565b5b620004b9825462000275565b620004c6828285620003eb565b600060209050601f831160018114620004fe5760008415620004e9578287015190505b620004f5858262000468565b86555062000565565b601f1984166200050e86620002aa565b60005b82811015620005385784890151825560018201915060208501945060208101905062000511565b8683101562000558578489015162000554601f89168262000448565b8355505b6001600288020188555050505b505050505050565b600073ffffffffffffffffffffffffffffffffffffffff82169050919050565b60006200059a826200056d565b9050919050565b620005ac816200058d565b82525050565b6000602082019050620005c96000830184620005a1565b92915050565b612d3e80620005df6000396000f3fe608060405234801561001057600080fd5b506004361061012c5760003560e01c806370a08231116100ad578063b88d4fde11610071578063b88d4fde14610343578063c87b56dd1461035f578063cd279c7c1461038f578063e985e9c5146103ab578063f2fde38b146103db5761012c565b806370a08231146102b1578063715018a6146102e15780638da5cb5b146102eb57806395d89b4114610309578063a22cb465146103275761012c565b806323b872dd116100f457806323b872dd146101e95780632f745c591461020557806342842e0e146102355780634f6ccce7146102515780636352211e146102815761012c565b806301ffc9a71461013157806306fdde0314610161578063081812fc1461017f578063095ea7b3146101af57806318160ddd146101cb575b600080fd5b61014b60048036038101906101469190612139565b6103f7565b6040516101589190612181565b60405180910390f35b610169610409565b604051610176919061222c565b60405180910390f35b61019960048036038101906101949190612284565b61049b565b6040516101a691906122f2565b60405180910390f35b6101c960048036038101906101c49190612339565b6104b7565b005b6101d36104cd565b6040516101e09190612388565b60405180910390f35b61020360048036038101906101fe91906123a3565b6104da565b005b61021f600480360381019061021a9190612339565b6105dc565b60405161022c9190612388565b60405180910390f35b61024f600480360381019061024a91906123a3565b610685565b005b61026b60048036038101906102669190612284565b6106a5565b6040516102789190612388565b60405180910390f35b61029b60048036038101906102969190612284565b61071b565b6040516102a891906122f2565b60405180910390f35b6102cb60048036038101906102c691906123f6565b61072d565b6040516102d89190612388565b60405180910390f35b6102e96107e7565b005b6102f36107fb565b60405161030091906122f2565b60405180910390f35b610311610825565b60405161031e919061222c565b60405180910390f35b610341600480360381019061033c919061244f565b6108b7565b005b61035d600480360381019061035891906125c4565b6108cd565b005b61037960048036038101906103749190612284565b6108ea565b604051610386919061222c565b60405180910390f35b6103a960048036038101906103a491906126e8565b6108fc565b005b6103c560048036038101906103c09190612757565b61091d565b6040516103d29190612181565b60405180910390f35b6103f560048036038101906103f091906123f6565b6109b1565b005b600061040282610a37565b9050919050565b606060008054610418906127c6565b80601f0160208091040260200160405190810160405280929190818152602001828054610444906127c6565b80156104915780601f1061046657610100808354040283529160200191610491565b820191906000526020600020905b81548152906001019060200180831161047457829003601f168201915b5050505050905090565b60006104a682610a98565b506104b082610b20565b9050919050565b6104c982826104c4610b5d565b610b65565b5050565b6000600880549050905090565b600073ffffffffffffffffffffffffffffffffffffffff168273ffffffffffffffffffffffffffffffffffffffff160361054c5760006040517f64a0ae9200000000000000000000000000000000000000000000000000000000815260040161054391906122f2565b60405180910390fd5b6000610560838361055b610b5d565b610b77565b90508373ffffffffffffffffffffffffffffffffffffffff168173ffffffffffffffffffffffffffffffffffffffff16146105d6578382826040517f64283d7b0000000000000000000000000000000000000000000000000000000081526004016105cd939291906127f7565b60405180910390fd5b50505050565b60006105e78361072d565b821061062c5782826040517fa57d13dc00000000000000000000000000000000000000000000000000000000815260040161062392919061282e565b60405180910390fd5b600660008473ffffffffffffffffffffffffffffffffffffffff1673ffffffffffffffffffffffffffffffffffffffff168152602001908152602001600020600083815260200190815260200160002054905092915050565b6106a0838383604051806020016040528060008152506108cd565b505050565b60006106af6104cd565b82106106f5576000826040517fa57d13dc0000000000000000000000000000000000000000000000000000000081526004016106ec92919061282e565b60405180910390fd5b6008828154811061070957610708612857565b5b90600052602060002001549050919050565b600061072682610a98565b9050919050565b60008073ffffffffffffffffffffffffffffffffffffffff168273ffffffffffffffffffffffffffffffffffffffff16036107a05760006040517f89c62b6400000000000000000000000000000000000000000000000000000000815260040161079791906122f2565b60405180910390fd5b600360008373ffffffffffffffffffffffffffffffffffffffff1673ffffffffffffffffffffffffffffffffffffffff168152602001908152602001600020549050919050565b6107ef610b8d565b6107f96000610c14565b565b6000600b60009054906101000a900473ffffffffffffffffffffffffffffffffffffffff16905090565b606060018054610834906127c6565b80601f0160208091040260200160405190810160405280929190818152602001828054610860906127c6565b80156108ad5780601f10610882576101008083540402835291602001916108ad565b820191906000526020600020905b81548152906001019060200180831161089057829003601f168201915b5050505050905090565b6108c96108c2610b5d565b8383610cda565b5050565b6108d88484846104da565b6108e484848484610e49565b50505050565b60606108f582611000565b9050919050565b610904610b8d565b61090e8383611113565b6109188282611131565b505050565b6000600560008473ffffffffffffffffffffffffffffffffffffffff1673ffffffffffffffffffffffffffffffffffffffff16815260200190815260200160002060008373ffffffffffffffffffffffffffffffffffffffff1673ffffffffffffffffffffffffffffffffffffffff16815260200190815260200160002060009054906101000a900460ff16905092915050565b6109b9610b8d565b600073ffffffffffffffffffffffffffffffffffffffff168173ffffffffffffffffffffffffffffffffffffffff1603610a2b5760006040517f1e4fbdf7000000000000000000000000000000000000000000000000000000008152600401610a2291906122f2565b60405180910390fd5b610a3481610c14565b50565b6000634906490660e01b7bffffffffffffffffffffffffffffffffffffffffffffffffffffffff1916827bffffffffffffffffffffffffffffffffffffffffffffffffffffffff19161480610a915750610a908261118d565b5b9050919050565b600080610aa483611207565b9050600073ffffffffffffffffffffffffffffffffffffffff168173ffffffffffffffffffffffffffffffffffffffff1603610b1757826040517f7e273289000000000000000000000000000000000000000000000000000000008152600401610b0e9190612388565b60405180910390fd5b80915050919050565b60006004600083815260200190815260200160002060009054906101000a900473ffffffffffffffffffffffffffffffffffffffff169050919050565b600033905090565b610b728383836001611244565b505050565b6000610b84848484611409565b90509392505050565b610b95610b5d565b73ffffffffffffffffffffffffffffffffffffffff16610bb36107fb565b73ffffffffffffffffffffffffffffffffffffffff1614610c1257610bd6610b5d565b6040517f118cdaa7000000000000000000000000000000000000000000000000000000008152600401610c0991906122f2565b60405180910390fd5b565b6000600b60009054906101000a900473ffffffffffffffffffffffffffffffffffffffff16905081600b60006101000a81548173ffffffffffffffffffffffffffffffffffffffff021916908373ffffffffffffffffffffffffffffffffffffffff1602179055508173ffffffffffffffffffffffffffffffffffffffff168173ffffffffffffffffffffffffffffffffffffffff167f8be0079c531659141344cd1fd0a4f28419497f9722a3daafe3b4186f6b6457e060405160405180910390a35050565b600073ffffffffffffffffffffffffffffffffffffffff168273ffffffffffffffffffffffffffffffffffffffff1603610d4b57816040517f5b08ba18000000000000000000000000000000000000000000000000000000008152600401610d4291906122f2565b60405180910390fd5b80600560008573ffffffffffffffffffffffffffffffffffffffff1673ffffffffffffffffffffffffffffffffffffffff16815260200190815260200160002060008473ffffffffffffffffffffffffffffffffffffffff1673ffffffffffffffffffffffffffffffffffffffff16815260200190815260200160002060006101000a81548160ff0219169083151502179055508173ffffffffffffffffffffffffffffffffffffffff168373ffffffffffffffffffffffffffffffffffffffff167f17307eab39ab6107e8899845ad3d59bd9653f200f220920489ca2b5937696c3183604051610e3c9190612181565b60405180910390a3505050565b60008373ffffffffffffffffffffffffffffffffffffffff163b1115610ffa578273ffffffffffffffffffffffffffffffffffffffff1663150b7a02610e8d610b5d565b8685856040518563ffffffff1660e01b8152600401610eaf94939291906128db565b6020604051808303816000875af1925050508015610eeb57506040513d601f19601f82011682018060405250810190610ee8919061293c565b60015b610f6f573d8060008114610f1b576040519150601f19603f3d011682016040523d82523d6000602084013e610f20565b606091505b506000815103610f6757836040517f64a0ae92000000000000000000000000000000000000000000000000000000008152600401610f5e91906122f2565b60405180910390fd5b805181602001fd5b63150b7a0260e01b7bffffffffffffffffffffffffffffffffffffffffffffffffffffffff1916817bffffffffffffffffffffffffffffffffffffffffffffffffffffffff191614610ff857836040517f64a0ae92000000000000000000000000000000000000000000000000000000008152600401610fef91906122f2565b60405180910390fd5b505b50505050565b606061100b82610a98565b506000600a6000848152602001908152602001600020805461102c906127c6565b80601f0160208091040260200160405190810160405280929190818152602001828054611058906127c6565b80156110a55780601f1061107a576101008083540402835291602001916110a5565b820191906000526020600020905b81548152906001019060200180831161108857829003601f168201915b5050505050905060006110b6611526565b905060008151036110cb57819250505061110e565b6000825111156111005780826040516020016110e89291906129a5565b6040516020818303038152906040529250505061110e565b6111098461153d565b925050505b919050565b61112d8282604051806020016040528060008152506115a6565b5050565b80600a600084815260200190815260200160002090816111519190612b75565b507ff8e1a15aba9398e019f0b49df1a4fde98ee17ae345cb5f6b5e2c27f5033e8ce7826040516111819190612388565b60405180910390a15050565b60007f780e9d63000000000000000000000000000000000000000000000000000000007bffffffffffffffffffffffffffffffffffffffffffffffffffffffff1916827bffffffffffffffffffffffffffffffffffffffffffffffffffffffff1916148061120057506111ff826115c2565b5b9050919050565b60006002600083815260200190815260200160002060009054906101000a900473ffffffffffffffffffffffffffffffffffffffff169050919050565b808061127d5750600073ffffffffffffffffffffffffffffffffffffffff168273ffffffffffffffffffffffffffffffffffffffff1614155b156113b157600061128d84610a98565b9050600073ffffffffffffffffffffffffffffffffffffffff168373ffffffffffffffffffffffffffffffffffffffff16141580156112f857508273ffffffffffffffffffffffffffffffffffffffff168173ffffffffffffffffffffffffffffffffffffffff1614155b801561130b5750611309818461091d565b155b1561134d57826040517fa9fbf51f00000000000000000000000000000000000000000000000000000000815260040161134491906122f2565b60405180910390fd5b81156113af57838573ffffffffffffffffffffffffffffffffffffffff168273ffffffffffffffffffffffffffffffffffffffff167f8c5be1e5ebec7d5bd14f71427d1e84f3dd0314c0f7b2291e5b200ac8c7c3b92560405160405180910390a45b505b836004600085815260200190815260200160002060006101000a81548173ffffffffffffffffffffffffffffffffffffffff021916908373ffffffffffffffffffffffffffffffffffffffff16021790555050505050565b6000806114178585856116a4565b9050600073ffffffffffffffffffffffffffffffffffffffff168173ffffffffffffffffffffffffffffffffffffffff160361145b57611456846118be565b61149a565b8473ffffffffffffffffffffffffffffffffffffffff168173ffffffffffffffffffffffffffffffffffffffff1614611499576114988185611907565b5b5b600073ffffffffffffffffffffffffffffffffffffffff168573ffffffffffffffffffffffffffffffffffffffff16036114dc576114d784611a68565b61151b565b8473ffffffffffffffffffffffffffffffffffffffff168173ffffffffffffffffffffffffffffffffffffffff161461151a576115198585611b39565b5b5b809150509392505050565b606060405180602001604052806000815250905090565b606061154882610a98565b506000611553611526565b90506000815111611573576040518060200160405280600081525061159e565b8061157d84611bc4565b60405160200161158e9291906129a5565b6040516020818303038152906040525b915050919050565b6115b08383611c92565b6115bd6000848484610e49565b505050565b60007f80ac58cd000000000000000000000000000000000000000000000000000000007bffffffffffffffffffffffffffffffffffffffffffffffffffffffff1916827bffffffffffffffffffffffffffffffffffffffffffffffffffffffff1916148061168d57507f5b5e139f000000000000000000000000000000000000000000000000000000007bffffffffffffffffffffffffffffffffffffffffffffffffffffffff1916827bffffffffffffffffffffffffffffffffffffffffffffffffffffffff1916145b8061169d575061169c82611d8b565b5b9050919050565b6000806116b084611207565b9050600073ffffffffffffffffffffffffffffffffffffffff168373ffffffffffffffffffffffffffffffffffffffff16146116f2576116f1818486611df5565b5b600073ffffffffffffffffffffffffffffffffffffffff168173ffffffffffffffffffffffffffffffffffffffff161461178357611734600085600080611244565b6001600360008373ffffffffffffffffffffffffffffffffffffffff1673ffffffffffffffffffffffffffffffffffffffff168152602001908152602001600020600082825403925050819055505b600073ffffffffffffffffffffffffffffffffffffffff168573ffffffffffffffffffffffffffffffffffffffff1614611806576001600360008773ffffffffffffffffffffffffffffffffffffffff1673ffffffffffffffffffffffffffffffffffffffff168152602001908152602001600020600082825401925050819055505b846002600086815260200190815260200160002060006101000a81548173ffffffffffffffffffffffffffffffffffffffff021916908373ffffffffffffffffffffffffffffffffffffffff160217905550838573ffffffffffffffffffffffffffffffffffffffff168273ffffffffffffffffffffffffffffffffffffffff167fddf252ad1be2c89b69c2b068fc378daa952ba7f163c4a11628f55a4df523b3ef60405160405180910390a4809150509392505050565b6008805490506009600083815260200190815260200160002081905550600881908060018154018082558091505060019003906000526020600020016000909190919091505550565b60006119128361072d565b90506000600760008481526020019081526020016000205490508181146119f7576000600660008673ffffffffffffffffffffffffffffffffffffffff1673ffffffffffffffffffffffffffffffffffffffff168152602001908152602001600020600084815260200190815260200160002054905080600660008773ffffffffffffffffffffffffffffffffffffffff1673ffffffffffffffffffffffffffffffffffffffff168152602001908152602001600020600084815260200190815260200160002081905550816007600083815260200190815260200160002081905550505b6007600084815260200190815260200160002060009055600660008573ffffffffffffffffffffffffffffffffffffffff1673ffffffffffffffffffffffffffffffffffffffff16815260200190815260200160002060008381526020019081526020016000206000905550505050565b60006001600880549050611a7c9190612c76565b9050600060096000848152602001908152602001600020549050600060088381548110611aac57611aab612857565b5b906000526020600020015490508060088381548110611ace57611acd612857565b5b906000526020600020018190555081600960008381526020019081526020016000208190555060096000858152602001908152602001600020600090556008805480611b1d57611b1c612caa565b5b6001900381819060005260206000200160009055905550505050565b60006001611b468461072d565b611b509190612c76565b905081600660008573ffffffffffffffffffffffffffffffffffffffff1673ffffffffffffffffffffffffffffffffffffffff168152602001908152602001600020600083815260200190815260200160002081905550806007600084815260200190815260200160002081905550505050565b606060006001611bd384611eb9565b01905060008167ffffffffffffffff811115611bf257611bf1612499565b5b6040519080825280601f01601f191660200182016040528015611c245781602001600182028036833780820191505090505b509050600082602001820190505b600115611c87578080600190039150507f3031323334353637383961626364656600000000000000000000000000000000600a86061a8153600a8581611c7b57611c7a612cd9565b5b04945060008503611c32575b819350505050919050565b600073ffffffffffffffffffffffffffffffffffffffff168273ffffffffffffffffffffffffffffffffffffffff1603611d045760006040517f64a0ae92000000000000000000000000000000000000000000000000000000008152600401611cfb91906122f2565b60405180910390fd5b6000611d1283836000610b77565b9050600073ffffffffffffffffffffffffffffffffffffffff168173ffffffffffffffffffffffffffffffffffffffff1614611d865760006040517f73c6ac6e000000000000000000000000000000000000000000000000000000008152600401611d7d91906122f2565b60405180910390fd5b505050565b60007f01ffc9a7000000000000000000000000000000000000000000000000000000007bffffffffffffffffffffffffffffffffffffffffffffffffffffffff1916827bffffffffffffffffffffffffffffffffffffffffffffffffffffffff1916149050919050565b611e0083838361200c565b611eb457600073ffffffffffffffffffffffffffffffffffffffff168373ffffffffffffffffffffffffffffffffffffffff1603611e7557806040517f7e273289000000000000000000000000000000000000000000000000000000008152600401611e6c9190612388565b60405180910390fd5b81816040517f177e802f000000000000000000000000000000000000000000000000000000008152600401611eab92919061282e565b60405180910390fd5b505050565b600080600090507a184f03e93ff9f4daa797ed6e38ed64bf6a1f0100000000000000008310611f17577a184f03e93ff9f4daa797ed6e38ed64bf6a1f0100000000000000008381611f0d57611f0c612cd9565b5b0492506040810190505b6d04ee2d6d415b85acef81000000008310611f54576d04ee2d6d415b85acef81000000008381611f4a57611f49612cd9565b5b0492506020810190505b662386f26fc100008310611f8357662386f26fc100008381611f7957611f78612cd9565b5b0492506010810190505b6305f5e1008310611fac576305f5e1008381611fa257611fa1612cd9565b5b0492506008810190505b6127108310611fd1576127108381611fc757611fc6612cd9565b5b0492506004810190505b60648310611ff45760648381611fea57611fe9612cd9565b5b0492506002810190505b600a8310612003576001810190505b80915050919050565b60008073ffffffffffffffffffffffffffffffffffffffff168373ffffffffffffffffffffffffffffffffffffffff16141580156120c457508273ffffffffffffffffffffffffffffffffffffffff168473ffffffffffffffffffffffffffffffffffffffff1614806120855750612084848461091d565b5b806120c357508273ffffffffffffffffffffffffffffffffffffffff166120ab83610b20565b73ffffffffffffffffffffffffffffffffffffffff16145b5b90509392505050565b6000604051905090565b600080fd5b600080fd5b60007fffffffff0000000000000000000000000000000000000000000000000000000082169050919050565b612116816120e1565b811461212157600080fd5b50565b6000813590506121338161210d565b92915050565b60006020828403121561214f5761214e6120d7565b5b600061215d84828501612124565b91505092915050565b60008115159050919050565b61217b81612166565b82525050565b60006020820190506121966000830184612172565b92915050565b600081519050919050565b600082825260208201905092915050565b60005b838110156121d65780820151818401526020810190506121bb565b60008484015250505050565b6000601f19601f8301169050919050565b60006121fe8261219c565b61220881856121a7565b93506122188185602086016121b8565b612221816121e2565b840191505092915050565b6000602082019050818103600083015261224681846121f3565b905092915050565b6000819050919050565b6122618161224e565b811461226c57600080fd5b50565b60008135905061227e81612258565b92915050565b60006020828403121561229a576122996120d7565b5b60006122a88482850161226f565b91505092915050565b600073ffffffffffffffffffffffffffffffffffffffff82169050919050565b60006122dc826122b1565b9050919050565b6122ec816122d1565b82525050565b600060208201905061230760008301846122e3565b92915050565b612316816122d1565b811461232157600080fd5b50565b6000813590506123338161230d565b92915050565b600080604083850312156123505761234f6120d7565b5b600061235e85828601612324565b925050602061236f8582860161226f565b9150509250929050565b6123828161224e565b82525050565b600060208201905061239d6000830184612379565b92915050565b6000806000606084860312156123bc576123bb6120d7565b5b60006123ca86828701612324565b93505060206123db86828701612324565b92505060406123ec8682870161226f565b9150509250925092565b60006020828403121561240c5761240b6120d7565b5b600061241a84828501612324565b91505092915050565b61242c81612166565b811461243757600080fd5b50565b60008135905061244981612423565b92915050565b60008060408385031215612466576124656120d7565b5b600061247485828601612324565b92505060206124858582860161243a565b9150509250929050565b600080fd5b600080fd5b7f4e487b7100000000000000000000000000000000000000000000000000000000600052604160045260246000fd5b6124d1826121e2565b810181811067ffffffffffffffff821117156124f0576124ef612499565b5b80604052505050565b60006125036120cd565b905061250f82826124c8565b919050565b600067ffffffffffffffff82111561252f5761252e612499565b5b612538826121e2565b9050602081019050919050565b82818337600083830152505050565b600061256761256284612514565b6124f9565b90508281526020810184848401111561258357612582612494565b5b61258e848285612545565b509392505050565b600082601f8301126125ab576125aa61248f565b5b81356125bb848260208601612554565b91505092915050565b600080600080608085870312156125de576125dd6120d7565b5b60006125ec87828801612324565b94505060206125fd87828801612324565b935050604061260e8782880161226f565b925050606085013567ffffffffffffffff81111561262f5761262e6120dc565b5b61263b87828801612596565b91505092959194509250565b600067ffffffffffffffff82111561266257612661612499565b5b61266b826121e2565b9050602081019050919050565b600061268b61268684612647565b6124f9565b9050828152602081018484840111156126a7576126a6612494565b5b6126b2848285612545565b509392505050565b600082601f8301126126cf576126ce61248f565b5b81356126df848260208601612678565b91505092915050565b600080600060608486031215612701576127006120d7565b5b600061270f86828701612324565b93505060206127208682870161226f565b925050604084013567ffffffffffffffff811115612741576127406120dc565b5b61274d868287016126ba565b9150509250925092565b6000806040838503121561276e5761276d6120d7565b5b600061277c85828601612324565b925050602061278d85828601612324565b9150509250929050565b7f4e487b7100000000000000000000000000000000000000000000000000000000600052602260045260246000fd5b600060028204905060018216806127de57607f821691505b6020821081036127f1576127f0612797565b5b50919050565b600060608201905061280c60008301866122e3565b6128196020830185612379565b61282660408301846122e3565b949350505050565b600060408201905061284360008301856122e3565b6128506020830184612379565b9392505050565b7f4e487b7100000000000000000000000000000000000000000000000000000000600052603260045260246000fd5b600081519050919050565b600082825260208201905092915050565b60006128ad82612886565b6128b78185612891565b93506128c78185602086016121b8565b6128d0816121e2565b840191505092915050565b60006080820190506128f060008301876122e3565b6128fd60208301866122e3565b61290a6040830185612379565b818103606083015261291c81846128a2565b905095945050505050565b6000815190506129368161210d565b92915050565b600060208284031215612952576129516120d7565b5b600061296084828501612927565b91505092915050565b600081905092915050565b600061297f8261219c565b6129898185612969565b93506129998185602086016121b8565b80840191505092915050565b60006129b18285612974565b91506129bd8284612974565b91508190509392505050565b60008190508160005260206000209050919050565b60006020601f8301049050919050565b600082821b905092915050565b600060088302612a2b7fffffffffffffffffffffffffffffffffffffffffffffffffffffffffffffffff826129ee565b612a3586836129ee565b95508019841693508086168417925050509392505050565b6000819050919050565b6000612a72612a6d612a688461224e565b612a4d565b61224e565b9050919050565b6000819050919050565b612a8c83612a57565b612aa0612a9882612a79565b8484546129fb565b825550505050565b600090565b612ab5612aa8565b612ac0818484612a83565b505050565b5b81811015612ae457612ad9600082612aad565b600181019050612ac6565b5050565b601f821115612b2957612afa816129c9565b612b03846129de565b81016020851015612b12578190505b612b26612b1e856129de565b830182612ac5565b50505b505050565b600082821c905092915050565b6000612b4c60001984600802612b2e565b1980831691505092915050565b6000612b658383612b3b565b9150826002028217905092915050565b612b7e8261219c565b67ffffffffffffffff811115612b9757612b96612499565b5b612ba182546127c6565b612bac828285612ae8565b600060209050601f831160018114612bdf5760008415612bcd578287015190505b612bd78582612b59565b865550612c3f565b601f198416612bed866129c9565b60005b82811015612c1557848901518255600182019150602085019450602081019050612bf0565b86831015612c325784890151612c2e601f891682612b3b565b8355505b6001600288020188555050505b505050505050565b7f4e487b7100000000000000000000000000000000000000000000000000000000600052601160045260246000fd5b6000612c818261224e565b9150612c8c8361224e565b9250828203905081811115612ca457612ca3612c47565b5b92915050565b7f4e487b7100000000000000000000000000000000000000000000000000000000600052603160045260246000fd5b7f4e487b7100000000000000000000000000000000000000000000000000000000600052601260045260246000fdfea2646970667358221220192887225b2b60c2318f7ff7e9d70e6c53e6f664ccc071952862008f730cafe864736f6c63430008180033",
  "linkReferences": {},
  "deployedLinkReferences": {}
}